:100000000C942B000C9453000C9453000C9453004C
:100010000C9453000C9453000C9453000C94530014
:100020000C9453000C9453000C9453000C94550002
:100030000C9453000C9453000C9453000C945300F4
:100040000C9453000C9453000C9453000C945300E4
:100050000C945300D00D11241FBECFE5D8E0DEBFB5
:10006000CDBF12E0A0E6B0E0EEEFF4E202C00590F2
:100070000D92A630B107D9F726E0A6E0B2E001C0A4
:100080001D92AE3CB207E1F710E0CBE2D0E004C035
:100090002197FE010E944110CA32D107C9F70E9480
:1000A0004F0D0C947D120C9400001F920F920FB60E
:1000B0000F9211242F938F939F93AF93BF938091AF
:1000C0000A0290910B02A0910C02B0910D02905C7B
:1000D000AF4FBF4F80930A0290930B02A0930C0284
:1000E000B0930D0280910A0290910B02A0910C0234
:1000F000B0910D02813D9740A105B10500F18091BD
:10010000060290910702A0910802B091090201969F
:10011000A11DB11D8093060290930702A0930802CF
:10012000B093090280910A0290910B02A0910C02F7
:10013000B0910D02805D9740A109B109CBCFBF916D
:10014000AF919F918F912F910F900FBE0F901F90A5
:10015000189583B7836083BF89B7816089BF08958D
:10016000F8946091060270910702809108029091C4
:100170000902789408958AB188618AB980B5866841
:1001800080BD10BC80E189B908955D9902C000006E
:10019000FCCF8CB908955F9903C08CB190E00895AD
:1001A0008FEF9FEF08950895CF92DF92EF92FF9225
:1001B0000F931F93CF93DF938C01EB0168817981BB
:1001C0008A819B8120E03AEC4AE95BE30E94E10FDF
:1001D000F801C080D180E280F380C20ED31EE41EFD
:1001E000F51EC082D182E282F382688379838A839A
:1001F0009B83DF91CF911F910F91FF90EF90DF9044
:10020000CF900895CF93DF93EC01CB01BA0120E0AA
:100210003AEC4AE95BE30E940310288339834A835E
:100220005B836C837D838E839F83BE016C5F7F4F76
:10023000CE010E94D400CE01DF91CF9108950F939B
:100240001F93CF93DF93EC0188819981AA81BB81B1
:100250000197A109B109FB0100811181228133813C
:10026000800F911FA21FB31F88839983AA83BB832A
:100270008C819D81AE81BF819653A546B44C44814B
:10028000558166817781840F951FA61FB71F8C83C8
:100290009D83AE83BF83BE016C5F7F4FCE010E9402
:1002A000D400CE01DF91CF911F910F9108950F934C
:1002B0001F93CF93DF93EC0188819981AA81BB8141
:1002C0000197A109B109FB010081118122813381CC
:1002D000801B910BA20BB30B88839983AA83BB83EA
:1002E0008C819D81AE81BF819653A546B44C4481DB
:1002F000558166817781841B950BA60BB70B8C8388
:100300009D83AE83BF83BE016C5F7F4FCE010E9491
:10031000D400CE01DF91CF911F910F9108950F93DB
:100320001F93CF93DF93CDB7DEB760970FB6F894E6
:10033000DEBF0FBECDBFFB01DC014D915D916D9124
:100340007C9113970081118122813381401B510BD5
:10035000620B730B49875A876B877C8714960D91C4
:100360001D912D913C91179744815581668177812C
:10037000D901C801841B950BA60BB70B8D879E87EF
:10038000AF87B88BBE01635F7F4FCE0109960E9495
:10039000E50188E0FE013996DE01119601900D928B
:1003A0008A95E1F729813A814B815C816D817E815B
:1003B0008F81988560960FB6F894DEBF0FBECDBFD3
:1003C000DF91CF911F910F9108950F931F93FB0120
:1003D0004081518162817381DC010D911D912D91CC
:1003E0003C914130BAEC5B07BAE96B07BBE37B0792
:1003F00044F05A5C6A497B430F5F1F4F2F4F3F4FBA
:10040000F0CF77FF08C056536546744C0150110970
:1004100021093109F6CFDC010D931D932D933C93F7
:10042000139740835183628373831F910F910895C3
:100430000F931F93CF93DF93EC01088119812A81D9
:100440003B81FB0180819181A281B381800F911F4B
:10045000A21FB31F88839983AA83BB830C811D814C
:100460002E813F8184819581A681B781800F911F64
:10047000A21FB31F8C839D83AE83BF83BE016C5FBD
:100480007F4FCE010E94E501CE01DF91CF911F91F8
:100490000F9108950F931F93CF93DF93EC01888101
:1004A0009981AA81BB81FB01008111812281338165
:1004B000801B910BA20BB30B88839983AA83BB8308
:1004C0008C819D81AE81BF81448155816681778118
:1004D000841B950BA60BB70B8C839D83AE83BF83C8
:1004E000BE016C5F7F4FCE010E94E501CE01DF911E
:1004F000CF911F910F910895CF92DF92EF92FF92CB
:10050000CF93DF93EC016A017B01688179818A8155
:100510009B810E94C40EA70196010E94280F0E9491
:100520008C0E688379838A839B836C817D818E8125
:100530009F810E94C40EA70196010E94280F0E946D
:100540008C0E6C837D838E839F83BE016C5F7F4F97
:10055000CE010E94E501CE01DF91CF91FF90EF9097
:10056000DF90CF900895DC01FB0112968C911297D9
:10057000808313968C911397818314968C91149792
:10058000828315968C911597838316968C91169776
:10059000848317968C911797858318968C9118975A
:1005A000868319968C91878388E090E00895FC01FA
:1005B000DB014C9150E060E070E042835383648340
:1005C000758311968C911197582B428353836483C2
:1005D000758312968C911297682B428353836483A0
:1005E000758313968C911397782B4283538364837E
:1005F000758314964C91149750E060E070E0468348
:1006000057836087718715968C911597582B468371
:1006100057836087718716968C911697682B46834F
:1006200057836087718717968C91782B4683578301
:100630006087718788E090E008958FE890E00895E2
:100640008DE990E008958EEB90E0089587ED90E0BD
:10065000089588EF90E008958BE091E0089583E796
:1006600090E008958CE291E008958DE491E0089582
:100670008DE591E008958F579B4FFC01808108958F
:10068000CF92DF92EF92FF920F931F93CF93DF935E
:1006900000D000D01F92CDB7DEB7643671053CF0B4
:1006A000FC01EF57FB4F2081222309F46DC0DA01D2
:1006B0007B018C01BC01665E7D4FED91FC91019048
:1006C000F081E02DCA01099568012DEEC21A2DEFC7
:1006D000D20A2FEFD6012C93F801EC5EFD4F2EEFDE
:1006E000208331968083319690833196292F280F6D
:1006F000209520833196E0821696FC9245E050E0EA
:1007000020E030E0DC011696A417B50734F06191C3
:10071000260F311D4F5F5F4FF7CF7C01B8E0EB0E26
:10072000F11C800F911FFC01E65EFD4F2095208398
:10073000E1E0EE16E2E0FE066CF48601C8018C19D9
:100740009D098E159F051CF5D8018D918D010E9484
:10075000C500F4CF8BED91E09A83898383E08B838E
:100760008EE791E09D838C83D801ED91FC910190FF
:10077000F081E02DAE014F5F5F4F67E070E0C80190
:1007800009958FEF9FEF04C080E090E001C0C701A2
:100790000F900F900F900F900F90DF91CF911F91BE
:1007A0000F91FF90EF90DF90CF900895CF92DF925E
:1007B000EF92FF9220E030E06A017B01022E04C03C
:1007C000F694E794D794C7940A94D2F7FC01C192A7
:1007D000CF01285F3F4F2032310571F7FF90EF9036
:1007E000DF90CF900895EF92FF920F931F93CF93D6
:1007F000DF937C018B01DC011296ED91FC91139744
:10080000EF0109900020E9F72197CE1BDF0BAE0125
:1008100060E070E0C8010E94D603F7016281738135
:10082000AE01C80104960E941C11CE010496DF910E
:10083000CF911F910F91FF90EF9008954F925F928B
:100840006F927F92AF92BF92CF92DF92EF92FF9220
:100850000F931F93CF93DF93EC018B018A81FB01F0
:1008600080838B8181838C8182838D818383DB0173
:1008700040E050E0BA01E4E0F0E01496CA80DB808A
:10088000EC80FD80CF0104964C155D056E057F055B
:10089000C8F42A853B85E20FF31F3497D080F1809E
:1008A00032812381DC921196FC92119712963C932F
:1008B000129713962C931397FC014F5F5F4F6F4F66
:1008C0007F4FDBCF5F01A00EB11E2C85F501208389
:1008D0002D8521832E8522832F852383D50140E01A
:1008E00050E0BA01CC84DD84EE84FF849C012C5F4F
:1008F0003F4F4C155D056E057F05F8F4CD018A1953
:100900009B09EC88FD888E0D9F1DFC01D080E18045
:10091000F28083811496DC9214971596EC921597C9
:100920001696FC92169717968C931797C9014F5FEE
:100930005F4F6F4F7F4F1496D5CFF801E80FF91F27
:100940008E8980838F898183888D8283898D83833B
:100950007901A12CB12C412C512C32018E899F8917
:10096000A88DB98D481659066A067B0680F5EC8D70
:10097000FD8DEA0DFB1DA081B181FD0101900020DC
:10098000E9F731976F01CA1ADB0AA60160E070E04F
:10099000C8018E0D9F1D0E94D603F4E0EF0EF11CDE
:1009A000EC8DFD8DEA0DFB1D60817181A601C801F2
:1009B0008E0D9F1D0E941C11EC0CFD1C8FEF481A20
:1009C000580A680A780AE2E0AE0EB11CC7CFC70128
:1009D000DF91CF911F910F91FF90EF90DF90CF901B
:1009E000BF90AF907F906F905F904F900895EF927F
:1009F000FF920F931F93CF93DF938C017B01DC0158
:100A000012962C911297FB012193CF011396ED9131
:100A1000FC911497EF0109900020E9F72197CE1B74
:100A2000DF0BAE0160E070E00E94D603D8011396A0
:100A30006D917C911497AE01C70105960E941C111F
:100A4000CE010596DF91CF911F910F91FF90EF900E
:100A50000895CF92DF92EF92FF920F931F93CF935F
:100A6000DF937C018B01DC0112968C911297FB01C4
:100A7000808313968C91139781831496ED91FC914A
:100A80001597EF0109900020E9F72197CE1BDF0BA6
:100A9000AE0160E070E0C80102960E94D603D70163
:100AA00014966D917C911597AE01C80106960E942F
:100AB0001C11CE010696F701A681B781FD010190B8
:100AC0000020E9F731976F01CA1ADB0AA60160E03E
:100AD00070E0800F911F0E94D6032A96D7011696C8
:100AE0006D917C911797A601C8018C0F9D1F0E94E4
:100AF0001C11CC0DDD1DD7011896ED91FC911997B5
:100B0000DF010D900020E9F711976D01CE1ADF0A81
:100B1000A60160E070E0C8018C0F9D1F0E94D60303
:100B20002496F70160857185A601C8018C0F9D1F71
:100B30000E941C11C6018C0F9D1FD7011A966C9143
:100B40001A971B964C911B971C963C911C971D96CF
:100B50002C91F801E80FF91F6083418332832383CE
:100B60000496DF91CF911F910F91FF90EF90DF904E
:100B7000CF900895CF92DF92EF92FF92FC01108206
:100B8000118212821382DB0120E030E04D9150E0AF
:100B9000022E02C0440F551F0A94E2F7052E000CE6
:100BA000660B770BC080D180E280F3804C295D29F1
:100BB0006E297F294083518362837383285F3F4F6F
:100BC0002032310519F7FF90EF90DF90CF90089514
:100BD0004F925F926F927F928F929F92AF92BF924D
:100BE000EF92FF920F931F93CF93DF9300D000D02B
:100BF000CDB7DEB77C018B01FB018191BF01F7010D
:100C00008283CE0101960E94BA0589819A81AB81C7
:100C1000BC814C015D01F5E08F0E911CA11CB11C43
:100C2000A8014C5F5F4FFA0125E030E02901612CFB
:100C3000712C481459046A047B0428F4618161937F
:100C40002F5F3F4FF3CFF801E80FF91F1482F70130
:100C50005483438305960F900F900F900F90DF9170
:100C6000CF911F910F91FF90EF90BF90AF909F9009
:100C70008F907F906F905F904F9008954F925F920A
:100C80006F927F928F929F92AF92BF92CF92DF929C
:100C9000EF92FF920F931F93CF93DF93CDB7DEB701
:100CA0002C970FB6F894DEBF0FBECDBF7C018B0131
:100CB000DB018C9190E0F7019383828311962C9154
:100CC000922B938382836E5F7F4FCE0109960E94A1
:100CD000BA0589849A84AB84BC8424013501F6E08A
:100CE0004F0E511C611C711C98012B5F3F4FF90185
:100CF00086E090E0AC0160E070E0441555056605C3
:100D0000770520F4418141930196F4CFF801E80D75
:100D1000F91D1582D70115963C932E931497B401B3
:100D20006A5F7F4F600F711FCE0105960E94BA0562
:100D3000BAE08B0E911C4D805E806F807884A40198
:100D4000092C000C660B770B440D551D661D771D95
:100D5000D801A80DB91DCD01801B910B5C01C12CE0
:100D6000D12CA416B506C606D70628F48D91FD0130
:100D700032978083F0CF5401A40CB51CB8016A0DE2
:100D80007B1DFB0131971082C4010197800F911FD9
:100D9000F70197838683CE0101960E94BA059501DB
:100DA0002C5F3F4F89819A81AB81BC812901032E41
:100DB000000C66087708480E591E6A1E7B1EF50156
:100DC0003396E00FF11FA9014A01A12CB12C841424
:100DD0009504A604B70428F4618161934F5F5F4FC7
:100DE000F3CF820F931FF801E80FF91FDF0111976E
:100DF0001C9221503109020F131FD70119961C9321
:100E00000E9318972181428150E060E070E0BA01B2
:100E100055274427522B2081422B2381722BF70127
:100E2000428753876487758704962C960FB6F8948B
:100E3000DEBF0FBECDBFDF91CF911F910F91FF900D
:100E4000EF90DF90CF90BF90AF909F908F907F906A
:100E50006F905F904F9008952F923F924F925F92C4
:100E60006F927F928F929F92AF92BF92CF92DF92BA
:100E7000EF92FF920F931F93CF93DF93CDB7DEB71F
:100E800060970FB6F894DEBF0FBECDBF8C016B012B
:100E9000DB018D909D90AD90BC90FC01828193818F
:100EA000A481B58188159905AA05BB0570F4B40124
:100EB000660F771F660F771F828593850E945610F5
:100EC000D8011B969C938E931A97F8018282938285
:100ED000A482B5829601812C912C540144E050E00B
:100EE000B8016A5F7F4F2C5F3F4FF8018281938189
:100EF000A481B581FA0134961F0188169906AA06C5
:100F0000BB0650F5D9011196FC90119712968C9161
:100F100090E0A0E0B0E0DC01992788279F29F90143
:100F2000F0808F29F380BF29F80186839783A087FB
:100F3000B187DA01A101149782859385A80FB91FA3
:100F400084E0FB0101900D928A95E1F7FFEF8F1A83
:100F50009F0AAF0ABF0AC7CF4601840E951ED4016F
:100F60008C9111969C91119712964C901297512C3E
:100F7000612C712C320155244424592A482A139695
:100F80008C91782A5F01F80184859585A685B785BF
:100F900084159505A605B70570F4B201660F771F95
:100FA000660F771F848995890E945610D80155963F
:100FB0009C938E935497F80144865586668677866F
:100FC000C401412C512C32019801205F3F4FD801C0
:100FD0001C964D915D916D917C911F97F501349612
:100FE000441655066606770698F5DC011596FC90C2
:100FF000159716964C91169750E060E070E0BA0194
:10100000552744275F291496FC9014974F2917966B
:10101000FC907F29D80150964D935D936D937C93FE
:1010200053975F01AC014819590954960D90BC9132
:10103000A02DA40FB51F44E0F90101900D924A952F
:10104000E1F7BFEF4B1A5B0A6B0A7B0A0496BFCF2E
:10105000D601AA0DBB1D8C9111969C9111971296E9
:101060008C901297912CA12CB12C54019924882496
:10107000992A882A13968C91B82A7F01F8018689CB
:101080009789A08DB18D88159905AA05BB0560F4D7
:10109000B401660F771F848D958D0E945610D8017C
:1010A0005D969C938E935C97F801868A978AA08EB2
:1010B000B18E212C312C812C912C54019801265E6B
:1010C0003F4F3A872987F80186899789A08DB18D8E
:1010D00088169906AA06BB0608F05FC0B6016E0D19
:1010E0007F1DCE0101960E94BA0597012C5F3F4FEC
:1010F000388B2F8749815A816B817C81C901330FDD
:10110000AA0BBB0B2C013D01440E551E661E771E1B
:101110004B865C866D867E8623E0E20EF11CF6012E
:10112000EE0DFF1D2F853889C901A0E0B0E04B848A
:101130005C846D847E8484159505A605B70528F426
:10114000A181A1932F5F3F4FEFCF6F847888460D29
:10115000571DF601E40FF51F31971082C301019767
:101160008C0D9D1DD8015B969C938E935A977A01A6
:101170005C96ED91FC915D97E20DF31DA985BA8512
:101180008D919C9191838083BFEF8B1A9B0AAB0A50
:10119000BB0AE2E02E0E311C96CFC70160960FB657
:1011A000F894DEBF0FBECDBFDF91CF911F910F919D
:1011B000FF90EF90DF90CF90BF90AF909F908F9077
:1011C0007F906F905F904F903F902F9008954F9237
:1011D0005F926F927F928F929F92AF92BF92EF92A7
:1011E000FF920F931F93CF93DF9300D000D0CDB722
:1011F000DEB77C018B01CE0101960E94BA05898180
:101200009A81AB81BC814C015D0124E0820E911C6E
:10121000A11CB11CA8014D5F5F4FFA0124E030E032
:101220002901612C712C481459046A047B0428F4A8
:10123000618161932F5F3F4FF3CFF801E80FF91FF2
:101240001382F7015383428304960F900F900F90FF
:101250000F90DF91CF911F910F91FF90EF90BF9072
:10126000AF909F908F907F906F905F904F90089578
:101270000F931F93CF93DF93CDB7DEB72A970FB6A7
:10128000F894DEBF0FBECDBF8C0183EC91E09A8352
:1012900089831B821C821D821E821F8218861986EA
:1012A0001A86D801ED91FC910190F081E02DAE01FC
:1012B0004F5F5F4F6AE070E0C80109950E94B0007F
:1012C000F80163837483858396832A960FB6F89416
:1012D000DEBF0FBECDBFDF91CF911F910F9108955B
:1012E0004F925F926F927F92AF92BF92CF92DF92B6
:1012F000EF92FF920F931F93CF93DF93CDB7DEB79B
:101300002E970FB6F894DEBF0FBECDBF8C018FECC9
:1013100091E09A8389831C821B8286EB91E09E83F5
:101320008D8398878F839A8789871B861C861D8665
:101330001E8668018DEEC81A8BEFD80A7801ABEBD8
:10134000EA1AABEFFA0A412C92E0592E612C712C6B
:10135000D601ED91FC913097A9F1848195819C8310
:101360008B83808191819E838D8382819381DC0137
:10137000ED91FC910480F581E02D099598878F838C
:10138000D601ED91FC9182819381DC01ED91FC917C
:101390000680F781E02D09959A8789874B865C86C0
:1013A0006D867E86D601ED91FC9160857185D801B0
:1013B000ED91FC910190F081E02DAE014F5F5F4F08
:1013C000C8010995B2E0CB0ED11CCE14DF0409F0A0
:1013D000BFCF6801E9E8CE1AEBEFDE0A412C82E0CC
:1013E000582E612C712CF701A081B1811097E1F189
:1013F00012968D919C9113979C838B8314968D915B
:101400009C9115979E838D83ED91FC91119704809B
:10141000F581E02DCD01099598878F83D7018D91B6
:101420009C91DC01ED91FC910680F781E02D0995FE
:101430009A8789874B865C866D867E86D801ED917A
:10144000FC91A080B180F70180819181DC01ED9158
:10145000FC910280F381E02D0995AE014F5F5F4F53
:10146000BC01C801F5010995F2E0EF0EF11CCE14A4
:10147000DF0409F0B8CFF801EF57FB4F81E080831C
:101480002E960FB6F894DEBF0FBECDBFDF91CF9181
:101490001F910F91FF90EF90DF90CF90BF90AF9092
:1014A0007F906F905F904F9008958F929F92AF9230
:1014B000BF92CF92DF92EF92FF920F931F93CF9341
:1014C000DF93CDB7DEB72A970FB6F894DEBF0FBE15
:1014D000CDBF8C015B0183EC91E09A8389831B82F1
:1014E0001C821D821E821F82188619861A860E94FF
:1014F000B000F801C380D480E580F6809B01AC0188
:101500002C193D094E095F0969017A01B501CE0127
:1015100001960E94D70288EE882E83E0982EA12C97
:10152000B12CC701B601A50194010E94E10FCB8047
:10153000DC80ED80FE80C20ED31EE41EF51ECB8241
:10154000DC82ED82FE829B01AC0160E472E48FE0FC
:1015500090E00E94BD0FCF80D884E984FA84DC013A
:10156000CB018C0D9D1DAE1DBF1D8F839887A98754
:10157000BA870E94B000CB80DC80ED80FE8031E035
:10158000C31AD108E108F108A50194010E94E10FF6
:10159000C21AD30AE40AF50AF801C782D086E186A6
:1015A000F286CF80D884E984FA84F6E3DF1AF5E680
:1015B000EF0AF4ECFF0A9B01AC0160E472E48FE0F7
:1015C00090E00E94BD0FC61AD70AE80AF90AF8018E
:1015D000C386D486E586F686B801655F7F4FC8016D
:1015E00007960E94D4000E94B000F801EA57FB4F12
:1015F00060837183828393832A960FB6F894DEBF4B
:101600000FBECDBFDF91CF911F910F91FF90EF9053
:10161000DF90CF90BF90AF909F908F9008952F92C2
:101620003F924F925F926F927F928F929F92AF9272
:10163000BF92CF92DF92EF92FF920F931F93CF93BF
:10164000DF93CDB7DEB762970FB6F894DEBF0FBE5B
:10165000CDBF9A8B898B0E94B0004B015C01298918
:101660003A892A573B4F3C832B83F9018081918132
:10167000A281B381A5019401281B390B4A0B5B0B96
:10168000DA01C901893F9A42A105B10528F0E9892B
:10169000FA89EF57FB4F108209891A8909581B4FA5
:1016A000D8018D919C91892B81F0E989FA89E657BF
:1016B000FB4F80819181A281B38188159905AA058C
:1016C000BB0518F4F801118210821A821982698808
:1016D0007A88F1E86F1AFBEF7F0AC988DA8825E873
:1016E000C21A2BEFD20A49885A8833E1430E511CA3
:1016F00049895A894F575B4F5E834D8389899A89FF
:1017000081579B4F98878F83A989BA89A257BB4F6E
:10171000BA87A987E988FA88B7E8EB1ABBEFFB0A12
:1017200029883A88E3E82E1AEBEF3E0A29893A899C
:1017300026573B4F3C872B87D501C4014496A11DFA
:10174000B11D8D879E87AF87B88BE989FA89878518
:101750009089A189B289892B8A2B8B2B31F40E9425
:10176000CB009C0197FF15C049C10E94B000DC016D
:10177000CB0188199909AA09BB09E989FA89278542
:10178000308941895289281739074A075B0738F79A
:1017900065C1D3018D919C911197820F931F8D93F9
:1017A0009C93F8014081518147305105E9F4D10102
:1017B0008D919C911197AC014F5F5F4F4D935C935E
:1017C000E989FA89E80FF91F238BF701808191815C
:1017D000019791838083892B09F0B7CFE8E0F0E08F
:1017E000D801ED93FC93B1CF4115510541F52F3F41
:1017F000310581F481E090E0918380832D853E85E1
:101800004F855889AB85BC852D933D934D935C9353
:1018100013979BCF0E94B000DC01CB018819990976
:10182000AA09BB0989389341A105B10508F48DCFF8
:1018300029893A892F573B4FD9011C920FC141305A
:10184000510591F42E3F310519F482E090E02BC050
:1018500011821082ED81FE818081811176CF89898C
:101860009A890E94380971CF4230510569F4D70135
:101870002D933C93F1011182108283E090E0D80116
:101880008D939C93F3014FC04330510581F4322F67
:101890002227D7018D919C911197280F391F2D93E5
:1018A0003C9384E090E0F801918380834ECF4430F4
:1018B000510581F460E071E00E94CD0F8F3F9105EA
:1018C00029F485E090E0918380833FCFF801118275
:1018D00010823BCF4530510561F4D6012D933C93E6
:1018E00086E090E0F80191838083D3012D933C93AF
:1018F0002CCF46305105D1F4322F2227F6018081BA
:101900009181280F391F31832083E7E0F0E0D8016F
:10191000ED93FC93D7018D919C91892B09F015CF04
:1019200028E030E0F801318320830FCF48305105A3
:1019300009F00BCF1182108260E071E00E94CD0FA0
:101940008F3F910509F001CFF601808191810097C9
:10195000D9F489899A890E94380989899A890E94CB
:10196000700929893A892E573B4FD9018D929D9252
:10197000AD92BC921397EB81FC8180829182A2820E
:10198000B3828FEF9FEF72C08A30910541F4B201AC
:1019900089899A890E94550AF1E0FA83D6CE863069
:1019A000910551F4B2018F8198850E942C0781E046
:1019B000A985BA858C93C9CE8B30910531F4ED8120
:1019C000FE811082F1E0F983C0CEFC01E456F109FA
:1019D000EE0FFF1F29893A89E20FF31FEB5BFB4FE4
:1019E00080819181009709F4B0CEDC01ED91FC91EA
:1019F0000190F081E02DB2010995A7CEE989FA891D
:101A0000EF57FB4F8081882301F109891A890E570E
:101A10001B4FF80180819181A281B381A5019401BE
:101A2000281B390B4A0B5B0BDA01C901853C994035
:101A3000A105B10550F089899A890E943809D80119
:101A40008D929D92AD92BC921397BA81B11109C04B
:101A5000E981E11109C080E090E008C08EEF9FEFBE
:101A600005C08CEF9FEF02C08DEF9FEF62960FB61F
:101A7000F894DEBF0FBECDBFDF91CF911F910F91C4
:101A8000FF90EF90DF90CF90BF90AF909F908F909E
:101A90007F906F905F904F903F902F9008958FEFC1
:101AA00084BB0FB6F894A89581B5886181BD11BC3F
:101AB0000FBE0E94A9000E94BB0078941092950668
:101AC00010929406109297061092960610929B061A
:101AD00010929A061092990610929806E0E3F6E0AA
:101AE00080E090E021913191232BF9F4FC01EE0F7D
:101AF000FF1FE05DF94F2FE032E0318320838358F0
:101B00009F4F90931402809313028DE192E0909383
:101B1000160280931502C12CD12C7601C0E6D0E0CC
:101B200011E00FEF82E0B82E29C0019689319105AE
:101B3000C9F6F1CFD0931C02C0931B02809115020D
:101B4000909116026091130270911402DC01ED91E4
:101B5000FC910190F081E02D49E152E009958091DE
:101B60000E028130C9F405BBB0920E020E94B00093
:101B70006B017C018DE192E00E940F0B0E94B0008E
:101B8000DC01CB018C199D09AE09BF09893E934048
:101B9000A105B10578F3CECF15BA10930E02E6CFAA
:101BA000EDE1F2E08FEF91E0918380831382148264
:101BB0001582168217821086118612861386148665
:101BC000158616861786108A118A128A80E092E09E
:101BD000E0E3F2E0DF019C011D9221503040E1F78B
:101BE000E0E3F4E0DF019C011D9221503040E1F779
:101BF00082E3E0E3F6E0DF01282F1D922A95E9F762
:101C0000E2E6F6E0DF011D928A95E9F7109295066B
:101C100010929406109297061092960610929906CA
:101C20001092980610929B0610929A0610929D06AA
:101C300010929C0610929E0610929F061092A0068B
:101C40001092A1061092A2061092A3061092A4066A
:101C50001092A5061092A6061092A7061092A8064A
:101C60001092A9061092AA061092AB0687EE91E098
:101C70009093AD068093AC061092AE061092AF061C
:101C80001092B0061092B1061092B2061092B306EE
:101C90001092B4061092B5061092B7061092B606CE
:101CA0001092B8061092B9061092BA061092BB06AE
:101CB0001092BC061092BD061092BE061092BF068E
:101CC0001092C1061092C0061092C2061092C3066E
:101CD0001092C4061092C5061092C7061092C6064E
:101CE0001092C9061092C806A9E1B2E083EF91E014
:101CF00011969C938E9386EB91E013969C938E9312
:101D00001297EFE0F2E087EB91E091838083B38359
:101D1000A2831186108608950E94930E6894B111D3
:101D20000C94220F08950E94070F88F09F5798F097
:101D3000B92F9927B751B0F0E1F0660F771F881FD0
:101D4000991F1AF0BA95C9F714C0B13091F00E94EA
:101D5000210FB1E008950C94210F672F782F882769
:101D6000B85F39F0B93FCCF3869577956795B39511
:101D7000D9F73EF490958095709561957F4F8F4F80
:101D80009F4F0895E89409C097FB3EF49095809585
:101D9000709561957F4F8F4F9F4F9923A9F0F92F31
:101DA00096E9BB279395F695879577956795B795AF
:101DB000F111F8CFFAF4BB0F11F460FF1BC06F5F95
:101DC0007F4F8F4F9F4F16C0882311F096E911C0A7
:101DD000772321F09EE8872F762F05C0662371F0C8
:101DE00096E8862F70E060E02AF09A95660F771FDC
:101DF000881FDAF7880F9695879597F9089557FD0C
:101E00009058440F551F59F05F3F71F04795880F68
:101E100097FB991F61F09F3F79F0879508951216FF
:101E200013061406551FF2CF4695F1DF08C01616AB
:101E300017061806991FF1CF86957105610508945C
:101E40000895E894BB2766277727CB0197F9089573
:101E50000E943B0F0C94AC0F0E949E0F38F00E9422
:101E6000A50F20F0952311F00C94950F0C949B0F67
:101E700011240C94220F0E94FF0E70F3959FC1F362
:101E8000950F50E0551F629FF001729FBB27F00D28
:101E9000B11D639FAA27F00DB11DAA1F649F66277D
:101EA000B00DA11D661F829F2227B00DA11D621FCC
:101EB000739FB00DA11D621F839FA00D611D221F86
:101EC000749F3327A00D611D231F849F600D211D6A
:101ED000822F762F6A2F11249F5750409AF0F1F0ED
:101EE00088234AF0EE0FFF1FBB1F661F771F881F56
:101EF00091505040A9F79E3F510580F00C94950FEA
:101F00000C94220F5F3FE4F3983ED4F386957795C7
:101F10006795B795F795E7959F5FC1F7FE2B880FFB
:101F2000911D9695879597F9089597F99F6780E891
:101F300070E060E008959FEF80EC089500240A941B
:101F40001616170618060906089500240A94121694
:101F50001306140605060895092E0394000C11F4C7
:101F6000882352F0BB0F40F4BF2B11F460FF04C074
:101F70006F5F7F4F8F4F9F4F0895DB018F939F932C
:101F80000E942210BF91AF91A29F800D911DA39F2F
:101F9000900DB29F900D1124089597FB072E16F413
:101FA000009407D077FD09D00E942D1007FC05D0C2
:101FB0003EF4909581959F4F0895709561957F4F60
:101FC0000895A1E21A2EAA1BBB1BFD010DC0AA1F7A
:101FD000BB1FEE1FFF1FA217B307E407F50720F092
:101FE000A21BB30BE40BF50B661F771F881F991F0D
:101FF0001A9469F760957095809590959B01AC0156
:10200000BD01CF010895052E97FB1EF400940E9498
:102010001A1057FD07D00E94E10F07FC03D04EF4C1
:102020000C941A1050954095309521953F4F4F4F85
:102030005F4F089590958095709561957F4F8F4F74
:102040009F4F08950E944710A59F900DB49F900D3B
:10205000A49F800D911D11240895AA1BBB1B51E163
:1020600007C0AA1FBB1FA617B70710F0A61BB70B08
:10207000881F991F5A95A9F780959095BC01CD01AD
:102080000895EE0FFF1F0590F491E02D0994A29F93
:10209000B001B39FC001A39F700D811D1124911D3C
:1020A000B29F700D811D1124911D0895A0E0B0E034
:1020B000ECE5F0E10C944A12EC01009721F4CB011D
:1020C0000E942511B4C0FC01E60FF71F9C012250AD
:1020D0003109E217F30708F4A8C0D9010D911C914A
:1020E000119706171707B0F00530110508F49BC0CB
:1020F000C80104978617970708F495C00250110984
:10210000061B170B019311936D937C93CF010E94D3
:10211000BD1189C05B01A01AB10A4C01800E911E4D
:10212000A091CC06B091CD06612C712CE12CF12C44
:10213000109709F446C08D919C911197A815B90587
:10214000B1F56C0142E0C40ED11CCA14DB0478F175
:102150004C018A189B08640142E0C40ED11C1296FF
:10216000BC9012971396AC91B5E0CB16D10440F019
:10217000B282A38391828082D9016D937C9309C03E
:102180000E5F1F4F800F911FF90191838083EB2D0C
:10219000FA2FE114F10431F0D7011396FC93EE937A
:1021A000129741C0F093CD06E093CC063CC0681670
:1021B000790608F43C017D0112960D90BC91A02D8A
:1021C000B7CF8091CA069091CB0688169906E1F4A4
:1021D00066167706C8F480916D0090916E000097A6
:1021E00041F48DB79EB74091710050917200841BED
:1021F000950BE817F907C8F4F093CB06E093CA06ED
:10220000F901718360830FC0CB010E9425117C010D
:10221000009759F0A801BE010E941C11CE010E9436
:10222000BD11C70104C0CE0102C080E090E0CDB76F
:10223000DEB7EEE00C946612FB01DC0102C00190F7
:102240000D9241505040D8F708950F931F93CF93AC
:10225000DF938230910510F482E090E0E091CC06AB
:10226000F091CD0620E030E0A0E0B0E0309719F129
:10227000408151810281138148175907C8F08417A2
:10228000950769F4109731F012960C9312971396F4
:102290001C9327C00093CC061093CD0622C02115B5
:1022A000310519F04217530718F49A01BD01EF01E7
:1022B000DF01F801DBCF21153105F9F0281B390BBF
:1022C0002430310580F48A819B816115710521F0EC
:1022D000FB019383828304C09093CD068093CC0648
:1022E000FE01329644C0FE01E20FF31F81939193E9
:1022F00022503109398328833AC02091CA0630918F
:10230000CB06232B41F420916F0030917000309365
:10231000CB062093CA0620916D0030916E002115E6
:10232000310541F42DB73EB74091710050917200D4
:10233000241B350BE091CA06F091CB06E217F30798
:10234000A0F42E1B3F0B2817390778F0AC014E5F25
:102350005F4F2417350748F04E0F5F1F5093CB0691
:102360004093CA068193919302C0E0E0F0E0CF0170
:10237000DF91CF911F910F910895CF93DF93009735
:1023800009F481C0FC01329713821282A091CC061D
:10239000B091CD06109781F420813181820F931F77
:1023A0002091CA063091CB062817390751F5F093D2
:1023B000CB06E093CA0667C0ED0120E030E0CE17FF
:1023C000DF0740F44A815B819E0141155105F1F020
:1023D000EA01F5CFD383C28340815181840F951FD9
:1023E000C817D90759F488819981840F951F0296DF
:1023F000918380838A819B81938382832115310518
:1024000029F4F093CD06E093CC063DC0E901FB83AF
:10241000EA8349915991C40FD51FEC17FD0761F468
:1024200080819181840F951F0296E90199838883A9
:10243000828193819B838A83E0E0F0E012968D9104
:102440009C911397009719F0FD01DC01F7CF8D9156
:102450009C9111979D012E5F3F4F820F931F2091FA
:10246000CA063091CB062817390769F4309729F44A
:102470001092CD061092CC0602C013821282B09345
:10248000CB06A093CA06DF91CF9108952F923F9279
:102490004F925F926F927F928F929F92AF92BF9274
:1024A000CF92DF92EF92FF920F931F93CF93DF9320
:1024B000CDB7DEB7CA1BDB0B0FB6F894DEBF0FBE7D
:1024C000CDBF09942A88398848885F846E847D84CA
:1024D0008C849B84AA84B984C884DF80EE80FD80CC
:1024E0000C811B81AA81B981CE0FD11D0FB6F89442
:0E24F000DEBF0FBECDBFED010895F894FFCF03
:1024FE0068656C6C6F20776F726C6421000000CE83
:10250E00062000726F7373657269616C5F6D73671D
:10251E00732F52657175657374506172616D0073BE
:10252E0074645F6D7367732F54696D6500636437F0
:10253E003136366337346335353263333131666263
:10254E006363326665356137626332383900726FA4
:10255E007373657269616C5F6D7367732F546F70FF
:10256E006963496E666F003061643531663838666E
:10257E006334343839326638633130363834303774
:10258E003736343630303500726F73736572696169
:10259E006C5F6D7367732F4C6F67003131616264CE
:1025AE003733316332353933333236316364363152
:1025BE00383362643132643632393500396630650B
:1025CE003938626461363539383139383664646683
:1025DE003533616661376134306534390073746444
:1025EE005F6D7367732F537472696E67003939327A
:1025FE0063653861313638376365633863386264D2
:10260E0038383365633733636134316431004D6577
:10261E0073736167652066726F6D2064657669639A
:10262E00652064726F707065643A206D65737361B6
:10263E006765206C6172676572207468616E2062D6
:10264E0075666665722E006368617474657200004B
:10265E00000000B302D7021D032003000000002972
:10266E00053E062303260300000000F704E80529B3
:10267E00032C03000000001E042C072F033203005E
:10268E00000000F303E708350338030000000040A4
:06269E00030F0B3B0300DB
:00000001FF
